:020000040800F2
:10300000804C002029910008ED330008EF330008C0
:10301000F1330008F3330008F53300080000000026
:10302000000000000000000000000000F73300086E
:10303000F9330008000000001FB70008FB33000848
:10304000439100084391000843910008CF350008E0
:103050004391000843910008E5380008F73800085C
:10306000093900081B3900082D39000863390008A8
:1030700043910008439100084391000843910008E0
:1030800043910008439100084139000823340008A7
:10309000753400089F340008C9340008AD370008B3
:1030A00043910008F33500084391000819360008E1
:1030B00051360008C5360008393700083F39000886
:1030C000439100084391000843910008213400080F
:1030D0001F3400089B350008BF350008C3350008C1
:1030E0004B380008439100084391000843910008C1
:1030F0004391000843910008439100084391000860
:10310000439100084391000843910008439100084F
:10311000C7350008CB3500084391000843910008EB
:10312000439100084391000843910008439100082F
:10313000DFF80CD00AF09AFC004800474D33000835
:10314000804C00207047704706F0B5BF704770474D
:103150007047934810B50168491C01600A291CD1C9
:10316000002101604168491C4160C268521CC26074
:103170006422B1FBF2F302FB131111B98168491CFF
:10318000816006F099F907F081FD0024204601F0E6
:1031900000F9641CE4B2052CF8D310BD80494968DD
:1031A00008448142FDDB704710B500F01AFFBDE80E
:1031B000104001F021BE10B5807820B1022809D05E
:1031C00003280AD102E0FFF7EFFF06E0002000F03D
:1031D000C5FE02E0002000F0E2FE002010BD10B5A8
:1031E0000446012000F0C4FE6E4A00211170E07810
:1031F0006D4C20706D4800684078092809D00D2872
:103200000AD001F0CBFC10B1207801F0D6FC0020F0
:1032100010BD01F02FFCF6E701F078FCF3E77047F2
:1032200010B5042006F007FB022001F090FA06F02A
:10323000E3FD00F06BFE00F017FE00F0BFFE002083
:1032400000F0C8FE00F07EFE00F0A8FE01F0C6F916
:1032500007F00DF807F05DF907F074FF20B154A1F5
:10326000002001F062FA01E000F02CFC02F07BF992
:1032700006F010FB01F06EFF06F004FF03F070F99A
:103280004F4802F080FE03F0F8F903F0E8F84FF63B
:10329000FF7364220221002006F0DDF8BDE8104033
:1032A000012000F07EBE10B5817831B1012909D02E
:1032B000112907D0132905D102E0FFF7B1FF01E082
:1032C00003F05BF8002010BD00207047002070471D
:1032D00010B500210A2006F0DAF9002805D00021F7
:1032E0008170BDE8104006F0E9B910BD0178C91E33
:1032F00009290FD2DFE801F005060E0E0E080C0AB0
:103300000B0058E701F02FB902F0BBBCCBE766E732
:1033100002F096BE00207047E8E708B506F0A8FD69
:10332000AFF20B034FF400722649032006F0F1F9C7
:103330006A4625A1032009F044F9FFF7C9FF0022DE
:1033400064231146104609F0A6FAF8E700B587B0E5
:1033500008F018FA4FF440514FF0006005F0BEFE3F
:103360004FF4A06005F088FE08F0A9FA19480DF1A5
:10337000040C032300228021ACE80F000620034642
:103380000090154A0021154808F0C3FF05AA14A1B2
:10339000062009F016F908F092FB07B0002000BDE6
:1033A000000000201D0000201E0000201CEB000873
:1033B000496E697420534E56204572726F72000038
:1033C000400D0300FC0100204D61696E2D546173B6
:1033D0006B000000FC090020F80B00201B330008E4
:1033E000526F6F742D5461736B0000007047FEE7DD
:1033F000FEE7FEE7FEE77047704710B508F06EF98C
:10340000FE49097819B1FE490A78521C0A7008F081
:1034100069F908F067FBBDE8104008F0E0BA7047B2
:10342000704710B5F74C0521204605F0FEFA01283B
:1034300005D10521204605F03FFB01F049FF06219B
:10344000204605F0F2FA012805D10621204605F0B4
:1034500033FB01F03DFF0721204605F0E6FA012885
:1034600007D10721204605F027FBBDE8104001F0F9
:103470002FBF10BD10B51421082006F008F9040074
:103480000CD000206070014604F10802DD4805F010
:103490005AFA2046BDE8104006F010B910BD10B52C
:1034A0001421082006F0F3F804000CD0002060700E
:1034B00004F108020121D34805F045FA2046BDE891
:1034C000104006F0FBB810BD7047F8B5054600EB9C
:1034D0000510C0EBC511CC4800EB810440F225512A
:1034E000D4F8900105F099FD50B1D4F8900105F0A1
:1034F0002DFD8DF80000E8B20122694600F087FE3C
:1035000040F227773946D4F8900105F086FD40F265
:10351000266620B3B4F88011B4F88201814204D148
:1035200000223946D4F8900117E0015DD4F89001EB
:1035300005F008FD94F88201401C00F07F00A4F81B
:10354000820194F89C11002926D1B4F8801181429F
:1035500009D101223146D4F8900105F0A7FC94F876
:103560009C01002818D13146D4F8900105F055FD92
:10357000002811D0B4F88001B4F8821188420BD130
:10358000E8B2002100F0BFFD3146D4F89001BDE85B
:10359000F840002205F08ABCF8BD10B59B4C40F203
:1035A0002551204605F039FD002807D0204605F0BA
:1035B000CDFCBDE81040C0B201F047B810BD0120FD
:1035C00083E7022081E703207FE704207DE790481E
:1035D00001880188890703D5018821F00201018053
:1035E000018840F6FA721140018001888906FCD5F5
:1035F000704710B5874C0121204604F057FB002886
:1036000009D00121204604F05DFB0121BDE81040F6
:10361000032007F09CBA10BD10B57E4C0221204655
:1036200004F044FB002812D00221204604F04AFB9B
:10363000204604F024FB00F57A7081B2204604F0A5
:103640000DFB0221BDE81040032007F080BA10BD39
:1036500010B501218C07204604F028FB38B1012168
:10366000204604F02FFB0121002007F070FA022110
:10367000204604F01BFB38B10221204604F022FB57
:103680000221002007F063FA0421204604F00EFB1B
:1036900038B10421204604F015FB0421002007F076
:1036A00056FA0821204604F001FB002809D0082121
:1036B000204604F007FB0821BDE81040002007F079
:1036C00046BA10BD10B5544C0121204604F0EEFA64
:1036D00038B10121204604F0F5FA0121084607F02F
:1036E00036FA0221204604F0E1FA38B102212046E0
:1036F00004F0E8FA0221012007F029FA042120460B
:1037000004F0D4FA38B10421204604F0DBFA042195
:10371000012007F01CFA0821204604F0C7FA00280F
:1037200009D00821204604F0CDFA0821BDE8104058
:10373000012007F00CBA10BD10B5384C012120460D
:1037400004F0B4FA38B10121204604F0BBFA01219B
:10375000022007F0FCF90221204604F0A7FA38B154
:103760000221204604F0AEFA0221084607F0EFF9E4
:103770000421204604F09AFA38B10421204604F0CE
:10378000A1FA0421022007F0E2F90821204604F002
:103790008DFA002809D00821204604F093FA082168
:1037A000BDE81040022007F0D2B910BD10B52020AE
:1037B00003F062F928B1202003F06CF9052006F02F
:1037C000E5FA402003F058F928B1402003F062F9EF
:1037D000062006F0DBFA802003F04EF928B18020A5
:1037E00003F058F9072006F0D1FA4FF48074204610
:1037F00003F042F9C8B1204612E00000BD010020EC
:10380000B801002000640040F0140020003801409E
:1038100004280040002C0140000400400008004043
:1038200003F038F9082006F0B1FA4FF4007420468E
:1038300003F022F9002807D0204603F02BF9BDE859
:103840001040092006F0A2BA10BD10B54FF48064F4
:10385000204603F011F928B1204603F01BF90A2095
:1038600006F094FA4FF40064204603F005F928B1FD
:10387000204603F00FF90B2006F088FA4FF480542D
:10388000204603F0F9F828B1204603F003F90C2094
:1038900006F07CFA4FF40054204603F0EDF828B10E
:1038A000204603F0F7F80D2006F070FA4FF480443C
:1038B000204603F0E1F828B1204603F0EBF80E2093
:1038C00006F064FA4FF40044204603F0D5F80028CF
:1038D00007D0204603F0DEF8BDE810400F2006F0C8
:1038E00055BA10BD10B5012003F0D4F8BDE8104062
:1038F000002006F04BBA10B5022003F0CBF8BDE86B
:103900001040012006F042BA10B5042003F0C2F8BE
:10391000BDE81040022006F039BA10B5082003F0C7
:10392000B9F8BDE81040032006F030BA10B51020F9
:1039300003F0B0F8BDE81040042006F027BA704745
:1039400070B52C4D4FF408742146284604F022FE31
:10395000002805D021462846BDE8704004F028BE66
:1039600070BD02F053BBD0E900BAD0E90298103024
:10397000F0C821A00AF0A8F9594625A00AF0A4F938
:10398000514626A00AF0A0F9494627A00AF09CF962
:10399000414628A00AF098F9214629A00AF094F996
:1039A00029462AA00AF090F931462BA00AF08CF99A
:1039B00039462CA00AF088F92D4801682DA00AF09C
:1039C00083F92B48103801682DA00AF07DF92848AA
:1039D0000C3801682DA00AF077F9254808380168ED
:1039E0002DA00AF071F92248001D01682DA00AF0EF
:1039F0006BF9FEE7002401405B4861726420666158
:103A0000756C742068616E646C65725D0A000000FC
:103A10005230203D2025780A000000005231203D20
:103A20002025780A000000005232203D2025780A27
:103A3000000000005233203D2025780A00000000DD
:103A4000523132203D2025780A0000004C52203DA2
:103A50002025780A000000005043203D2025780AE8
:103A600000000000505352203D2025780A0000003D
:103A700038ED00E042464152203D2025780A000002
:103A800043465352203D2025780A000048465352B1
:103A9000203D2025780A000044465352203D202531
:103AA000780A000041465352203D2025780A000044
:103AB000DD48704707F050BBDC4800887047DB48A2
:103AC0004088704770B52221D94809F040FDD74A97
:103AD0000221212007F0AEFBD44C002500B1258047
:103AE000D24A0221921CB02007F0A4FB00B16580ED
:103AF000CF4A1021A02007F09DFB18B1CDA1CC48E2
:103B000009F05CFDCA4A102111321446A12007F0C9
:103B100091FB18B1C9A1204609F050FDC44A1C21EF
:103B20002432C02007F086FB002813D0C048C549C6
:103B30002430016041F2A90141601D218160C24928
:103B4000C1606FF00D01016141F2B16141614FF45B
:103B50008031816170BD70B5BC4B1C6822701D68DE
:103B600009246C701C68A0701868C01C09F0D6FC91
:103B7000B7480078BDE8704001F01FB82DE9F0416A
:103B800016460F46054607F0A9FD804604F055F994
:103B9000284604F08CF9002406E03959284604F040
:103BA0002AFA2D1D241DA4B2B442F6D304F051F913
:103BB000404607F097FD0020BDE8F08110B5C11C1C
:103BC0001822A44809F0AAFC192010BD70B5964D22
:103BD0000146ED1E1446E81E2A5D035D9D48C91C82
:103BE0008030184409F09AFC285D401CC0B270BDBA
:103BF00000210160192070478B4A921F525C80326D
:103C000002608948C01E405C401CC0B270472DE96C
:103C1000F84F1D4614468A46064606F04CFADFF871
:103C200038824FF420794A4641468A4809F076FCAA
:103C3000B278002742B1012A0DD0022A0BD0032A04
:103C400009D0FF20BDE8F88F51463046FFF7B6FF98
:103C5000034600970AE0521E51463046FFF7B6FF72
:103C6000B1780346491E6846FFF7C6FF2770D0208B
:103C70006070784800991A460144E01C09F04EFC37
:103C800006F019FA4A4673494046FFF777FFA078D5
:103C900008B900F04CFA287821780844801C287074
:103CA0000020CFE738B51D4681781446034639B168
:103CB000012909D0022907D0032905D0FF2038BDEA
:103CC00000200090192003E0491E6846FFF794FF8A
:103CD0009978A170411C217010216170421E5E49CB
:103CE00000980144E01C09F019FC28782178084468
:103CF000801C2870002038BD10B5091FCAB2817819
:103D000021B9C378011D184600F06FFA002010BDDC
:103D100053495248086070472DE9FC4115468778A1
:103D2000C2798179CDE900121C4607F26C7743799C
:103D30000279C1780026384606F03AFA2E70C02083
:103D400068702078801C2070BDE8FC8170B51D462D
:103D5000144606F0DEFB06202070C120607041484A
:103D60000179A1F26C71A1708179E170C179217141
:103D7000017861714178A1718078E071287808300C
:103D8000287070BD70B5841C1D46807806F0CBFB92
:103D9000304901200870C220487020788870287847
:103DA000C01C287070BD70B5447800251646D12C13
:103DB00015D008DCC02C1DD0C12C20D0C22C23D0A3
:103DC000D02C2DD106E0F02C27D0F12C21D0FD2CC9
:103DD00026D10AE00A463146FFF719FF03E00A46FA
:103DE0003146FFF75FFF05461AE00A463146FFF706
:103DF00083FFF8E70A463146FFF78EFF10E00A46D8
:103E00003146FFF7A3FF0BE00A463146FFF7BAFF42
:103E100006E0012000F0C5F802E0012000F0A8F85B
:103E2000284670BDBFE7000086EA000810000020A9
:103E3000FC13002041444D494E0000003836303814
:103E400036300000EE9D0E002063E2FF1CEB000800
:103E50001E000020FC0B002000E803080400FA0507
:103E60000CED00E0583D00202DE9F047254D264E91
:103E700000244FF4447905F10508285D494605F012
:103E800058FE18F80410285D05F07FFE06EB44107C
:103E90000746202109F05BFB3C70641C052CECDB21
:103EA000BDE8F087174A105C05F06FBE154910B5E4
:103EB000085C05F05DFEC0B210BD1249085C05F05B
:103EC00073BE10B5044600780021FFF7EBFFE069F0
:103ED000002802D0BDE81040004710BD7CB50D465B
:103EE000094901EB40140121E261FFF7DBFF201DCE
:103EF000AFF23103CDE900402A460021104606F01A
:103F00008EFE7CBD9AEA00083C14002070B50121A9
:103F10000A4802F0A7FE0A4D00244FF41276285DED
:103F2000314605F006FE641C032CF8DB70BD044925
:103F300010B5085C05F01CFEC0B210BD00043000D6
:103F4000A4EA000810B54FF404710F2005F0F1FD4C
:103F50000121BDE810400F2005F017BE08B1002177
:103F600000E001210F2005F010BE0F2005F01CBE5F
:103F700010B504000ED00120FFF7F0FF6420444389
:103F80000A20B4FBF0F200230121BDE81040032019
:103F900005F061BABDE810400020DFE770477047C8
:103FA0007047002809D0642148430A21B0FBF1F290
:103FB00000230121022005F04EBA704710B54FF4DE
:103FC00004710E2005F0B5FD0121BDE810400E2062
:103FD00005F0DBBD08B1002100E001210E2005F055
:103FE000D4BD0E2005F0E0BD38B50D4600EB001144
:103FF000C1EBC011FE4800EB810494F88C01A8428B
:1040000009D0D4F8B8013DB1002804D107F0DFFE93
:10401000C4F8B80128B938BD18B16A46012107F0C3
:10402000C0FF84F88C5138BDF0B5054600EB051093
:10403000C0EBC511EE4885B000EB8104D4F8B01197
:1040400000295ED028468847D4F89001002858D02F
:1040500004F5C874002620798DF810000F208DF823
:1040600011008DF8126001278DF8137004A805F077
:1040700008F820690090207DDE4931F81000ADF885
:104080000400607D091D31F81000ADF80600A07D28
:10409000891D31F81000ADF808000C20ADF80C6057
:1040A000ADF80A00207A694606F018FE2068A4F5EB
:1040B000C874012240F2255104F0F8FECC481438AF
:1040C00050F8251051B994F88C1140F8257084F8F7
:1040D0008C612846C4F8B861FFF786FF94F8A70101
:1040E000A4F8880194F89C0100280AD194F8AC0146
:1040F0004FF4447105F01DFD94F8AC01002105F06A
:1041000044FD05B0F0BD00EB0012C2EBC012B84890
:1041100000EB820090F89C21002A07D190F8AC01B6
:1041200009B1012100E0002105F02FBD704710B555
:104130000024E0B2FFF778FF641C052CF9DB10BD0A
:1041400070B515460E460246052819D202EB02103C
:10415000C0EBC211A64800EB8104B4F88211B4F898
:104160008001814201D1802007E0081A8030C11708
:1041700000EB516121F07F01401A80B2A84201D2C8
:10418000002070BD01211046FFF7BDFFB4F880018B
:10419000B4F88211884203D3C0F18002AA420ADD3A
:1041A00020442A46314609F0B9F9B4F88001284480
:1041B000A4F8800110E02044314609F0AFF9B4F8CA
:1041C0008001C0F180008119281A85B220462A4654
:1041D00009F0A4F9A4F88051012240F22771D4F823
:1041E000900104F063FE012070BD30B4824B0124C5
:1041F00018705C7030BCA3E700EB0012C2EBC0107B
:104200007B4A002102EB8000A0F88A1170472DE95B
:10421000F041064600EB0610754BC0EBC61003EBF1
:1042200080041546B4F88621B4F884010F46824212
:1042300002D14FF480710AE0111A01F580714FEA42
:10424000E17C01EB1C6C2CF0FF0CA1EB0C0189B2A2
:10425000A94202D20020BDE8F08106EB06114FF022
:10426000800CC1EBC6110CEB8101904203D3C0F569
:104270008072AA420BDD184408442A46394609F0E8
:104280004DF9B4F884012844A4F8840112E01844DC
:104290000844394609F042F9B4F88401C0F5807049
:1042A000C119281A85B204F180002A4609F036F9AE
:1042B000A4F884513046FFF79FFF0120CBE700EBC5
:1042C0000012C2EBC0124A4800EB8200A0F888112D
:1042D000A0F88A1170472DE9F047064600EB06105A
:1042E000434FC0EBC61007EB80048846B4F8860144
:1042F000B4F88411C0F580700844C11700EB116157
:1043000021F0FF01401A80B21546824200D3C5B2A7
:10431000E5B307F0E3F98146B4F88601B4F88421E7
:10432000802106EB0613C3EBC61301EB8301904219
:1043300004D2384401442A46404613E0C0F5807256
:10434000AA42F6DC38440144404609F0E7F8B4F8E4
:104350008601C0F58070291A0A04120C04D004F1F9
:104360008001404409F0DAF894F886012844C0B28C
:10437000A4F88601B4F88411884204D10020A4F87E
:104380008401A4F88601484607F0ACF92846BDE848
:10439000F08770B5054600EB0510C0EBC511144859
:1043A00000EB8100B0F88611B0F88421914236D03C
:1043B000B0F88A315B1C9BB2A0F88A31B0F8884112
:1043C000A3422CD3C1F580711144CA1701EB1262CC
:1043D00022F0FF02891A8EB290F88C1131B1D0F818
:1043E000B801BDE87040012107F016BE314605E076
:1043F000F0140020A8EA000814000020042005F0B2
:1044000046F904000BD0F2B204F108012846FFF788
:1044100062FFA5702046BDE8704005F04FB970BD41
:1044200070B500EB001100F11003C1EBC0115F4843
:1044300000EB810404F5D0752A460C21184606F0DD
:10444000F9FE20B12846FF220C2109F079F8D4F8B2
:10445000A001B0F5E13F03D94FF41650C4F8A00114
:1044600094F8A4110020022901D384F8A40194F83F
:10447000A511032901D384F8A50194F8A6110329F5
:1044800001D384F8A60194F8A7010221FA2801D8E3
:10449000022801D284F8A71170BD00EB0011C1EB16
:1044A000C010424901EB800090F88C01704700EB8E
:1044B0000011C1EBC0113D4800EB8100B0F886113E
:1044C000B0F88401814201D101207047002070477B
:1044D000F8B504460F4600EB0410C0EBC411334896
:1044E000164600EB810595F88C0100280FD07BB1B2
:1044F0002046FFF7DCFF58B16A461946D5F8B801E7
:1045000007F0EDFC324639462046FFF7E4FEF8BDE1
:10451000324639462046BDE8F840DCE610B5044690
:1045200000EB04102149C0EBC41001EB8000D0F86F
:10453000900104F009FC2046BDE8104074E500EB52
:104540000011C1EBC011194800EB8100B0F88211D5
:10455000B0F88001081A8030C11700EB516121F0DA
:104560007F01401A704710B5114C817823788B4237
:104570000CD1627852B1827900F10801184600F03E
:10458000A8F800206070FF2020700CE005290AD2F6
:1045900001EB0112C2EBC112044901EB8201D1F817
:1045A000B41101B18847002010BD0000F0140020B4
:1045B0001400002010B50C46480702D0002000F07F
:1045C0001CFBE00609D564480078C10701D18007CB
:1045D00003D5BDE8104006F0DBBB10BD10B586B0BA
:1045E00000244FF4E1300090ADF808400C20ADF805
:1045F0000440ADF80A00ADF80640ADF80C4069463D
:10460000204606F06BFB25208DF810000F208DF85A
:1046100011008DF8124001208DF8130004A804F059
:1046200030FD012240F225514C4804F03FFC4FF48C
:1046300002714B4808F08BFFAFF287004849C1F880
:10464000040200F063FB06B010BD454991F800225A
:10465000885401F500710878401C08704A680421EC
:104660000020104710B53D4C0146204604F06AFC7E
:104670004021204604F0C7FC0028F9D010BD70B5D9
:104680000D460646002404E0305DFFF7EBFF641C96
:10469000E4B2AC42F8D332481021D0F80422BDE88D
:1046A00070400020104770B5BF2A11D82D4B1C68F0
:1046B00022701D6809246C701C68A0701868C01CEA
:1046C00008F02CFF28480078BDE8704000F075BA6B
:1046D00070BD4030C0B2E6E710B514460A4608B1D6
:1046E000002010BDE1B21046FFF7C9FF204610BD03
:1046F00078B91B4A92F8003292F80102834208D03E
:10470000105C087092F80102401C82F8010201203E
:1047100070470020704710B5044608F02DFF214671
:10472000C2B2BDE810403020BDE70FB40F4900B55C
:10473000096891B0884207DC14AA6846139909F009
:10474000EFFA6846FFF7E7FF11B05DF814FB0528A4
:1047500001D206490860704724000020003801405B
:104760009C1D00201CEB00081E00002018000020EB
:1047700070B50D4608F0F6FE002404E000F8014B89
:10478000294608F0EFFE0028F8D170BD70B5046826
:104790000646002C1FD0204608F0EEFE00281AD056
:1047A00008F0A6FE054600682178415CC90701D0E3
:1047B000641CF9E7204608F0DFFE0119491E0022BB
:1047C00001E001F80129A14204D30B782868C05CFC
:1047D000C007F6D1346070BD70B51C461546106038
:1047E00008F0C0FE206000280BD000210170206876
:1047F000401C20602846FFF7C9FF2046FFF7C6FF90
:10480000012070BD2DE9FE431C468946022A4AD389
:104810000178412947D14178542944D10026865452
:10482000921E12F0FF0700F1020518D028780D281B
:1048300015D00A2813D00822DFF8D48171A0082FE0
:1048400003D3294608F0C3FE98B1052271A0052FB5
:1048500029D3294608F0BBFE00287DD023E04F2154
:1048600089F800104B2189F801102078801C1870FD
:1048700056E005F1080001AB02AA3D21FFF7ACFFAD
:1048800088B10025654F08E007EB8600C1680298F3
:1048900008F079FE50B16D1CEDB205EB850637F8D6
:1048A00026000028F0D1FF20BDE8FE8301980178A2
:1048B0003F290BD005EB850107EB8105297A0129FA
:1048C00030D0022933D0042936D038E005EB8500FA
:1048D00007EB800598F80000A97A81421AD8687A17
:1048E00018B14FA16B68EA680CE02A7A68466968DB
:1048F00008F014FE287A012806D0022807D0009B71
:10490000EA6849A1484672E09DF80030F8E7BDF832
:104910000030F5E746A14846EA6809F0E5F968E0A5
:104920000020C1E708F062FE8DF8000007E008F003
:104930005DFEADF8000002E008F058FE0090687AD5
:10494000E8B1019808F018FE297A884203D868680F
:10495000019908F033FE00E017E0A97A98F800000A
:104960008142D7D8297A37F826006A46FFF7A2F89D
:104970002969044609B168468847204694E72A7A9F
:104980006946686808F0CAFDE5E720A001901FA00D
:104990006D1D009026212846FFF7EAFE284608F004
:1049A000EBFD28B12846019508F0E6FD05446D1C95
:1049B000284608F0E1FD18B12846009508F0DCFD16
:1049C00001A8FFF7E3FE6846FFF7E0FE1E480199E5
:1049D00008F0D9FD28B91C480099113008F0D3FD22
:1049E00058B188F8006019A1DDE90032484609F0A5
:1049F0007BF921780844207092E7012188F80010A3
:104A000017A1F1E72B434F4E4649473D00000000F8
:104A10001C0000202B4C4F473D000000B8EA000866
:104A200025733A257300000025733A2575000000B0
:104A3000636F6E6669672025733A20756E617574C1
:104A4000686F72697A656400FC1300204C4F472040
:104A500025732625733A204661696C656400000061
:104A60004C4F472025732625733A205375636365A1
:104A700065640000F8B5AA4C01238DF80030A94EFA
:104A80002068002572798178D01E212916D005DC96
:104A900011B3012922D0202904D124E022292BD0CE
:104AA00050290BD02168081D08F038FD9DF8000042
:104AB00071790844C01E8DF80000012521689DF819
:104AC0000000087020682168807840F080008870BD
:104AD0002068C5700120F8BDF371EFE706F01EFBFA
:104AE0000220F071EAE7C2B2216820686B46091D16
:104AF000C01CFFF787FE07E0C2B2216820686B4642
:104B0000091DC01CFFF78EF90546D7E770B5844E26
:104B10000124002530682246817830460068401C18
:104B2000062929D004DC042907D0052904D115E081
:104B3000072902D010290CD0012530680470306894
:104B40003168807840F0800088703068C57001203E
:104B500070BD7448C27106F0E7FBEEE70C21C1702E
:104B6000001D06F072F9704930680A88120A427412
:104B7000097881741024E0E7FEF79AFF08F0FCFC46
:104B8000316804460871FEF793FF014630682246FB
:104B9000401D08F0C3FCA41CE4B2CEE7604801222B
:104BA000114603681A7002680368927842F0800226
:104BB0009A700068C1700120704770B5584E054664
:104BC000002330681C4619460078C01CC2B203E0BE
:104BD000405C4340491CC9B230689142F8D38354C9
:104BE0005048524B921C81781970FD2181701946F2
:104BF0002846FFF771FD204670BDF8B50546002434
:104C0000484E3DE0B17931B101290CD0022916D0CE
:104C1000032935D126E09DF80000FE2801D0FD28AB
:104C20002ED101201CE09DF80000BF2801D9B471ED
:104C300026E00221B1713471F470C01C7071F178FA
:104C40009DF800004140F170354932790968885477
:104C50003079401CC0B230717179884210D1032084
:104C6000B0710DE0B471F0789DF80010884207D162
:104C700000210B2004F00BFD10B1C57004F01EFDE7
:104C8000012269462846FFF733FD0028BAD1F8BD56
:104C900070B50025234C2FE010F8012BA37933B118
:104CA000012B08D0022B10D0032B25D11EE0FE2AA9
:104CB00022D1012218E0BF2A01D9A5711CE00223EC
:104CC000A3712571E570D31C6371E3785340E370E1
:104CD000134B26791B689A552279521CD2B2227145
:104CE00063799A4208D10322A27105E0A571E378A5
:104CF000934201D1012070BD0A00A1F1010189B2E6
:104D0000CAD1002070BD074988707047054800214E
:104D10008171C17101704170FD2181707047000087
:104D20001CEB00081D0000202E000020A41F002006
:104D300009490AA008F0C8BF70B5094D0446C1B2C0
:104D4000284604F0FFF84021284604F05CF90028CA
:104D5000F9D0204670BD000020EB0008257300004C
:104D6000003801402DE9F003DFF8E483F74AB8F892
:104D70005400511D00283CD01020D07002209070AB
:104D80004FF0000C012482F804C023466046A1467F
:104D9000B8F8545009FA00F425421DD000EB400445
:104DA0000D2505EB4404E4B208EB44040870268B9F
:104DB0006546370A67F31F6566F31745668B370A42
:104DC00067F30F2566F30705C1F80150A48BA1F81E
:104DD0000540C91DDB1DDBB2401CC0B20528D7D37E
:104DE0001370BDE8F0031B1D2121DBB2FF2000F092
:104DF0006EBFBDE8F0037047B4E7F0B530F8012F9F
:104E00000123408855BA40BA2A46D14F2E180DE0EA
:104E100007EB4200048B4FEA142CCC189B1C84F83F
:104E200001C0007EA0701E2D02D2521C9642EFDC03
:104E30004B70F0BD2DE9F047884630F8011F4088DF
:104E40004CBA40BA254604EB000916E0601BC117B6
:104E500000EB5171C1F3C70621F00701401AC7B238
:104E6000032C0CDAE0B2AFB1FFF761F808EB0601F2
:104E7000B8408A7810438870641CA145E6DC601B4A
:104E8000C01DC11700EB5170C0F3C70188F80110B5
:104E9000BDE8F087FFF74BF808EB0601EBE770B5CC
:104EA00004460D46B0F80100B4F8031040BA49BA00
:104EB000102804D201B10121C0B201F08FFC60784A
:104EC0006870A078A870E078E8702079287170BDCB
:104ED0002DE9F0470546B0F801000F4644BAB5F891
:104EE0000300264640BA4FF0050904EB00081AE01B
:104EF000A01BC11700EB5171C1F3C70221F00701DC
:104F0000401AC0B2102C10DA09EB02012944012228
:104F1000497882401142E0B201D0012100E0002135
:104F200001F05CFC641CA045E2DC68787870A8782D
:104F3000B870E878F87028793871A9E72DE9F0475A
:104F4000884630F8011F40884CBA40BA254604EB29
:104F5000000916E0601BC11700EB5171C1F3C706D1
:104F600021F00701401AC7B2102C0CDAE0B2A7B149
:104F700001F087FC08EB0601B8408A78104388707E
:104F8000641CA145E6DC601BC01DC11700EB51701D
:104F9000C0F3C70188F801107AE701F072FC08EB52
:104FA0000601ECE72DE9F047451C0E466988B0F88C
:104FB000010091FA91F8A98840BA6D1E4FBAA0B9C4
:104FC00001F068FC00244FF0010909FA04F010EA2E
:104FD000080F07D03842E0B201D0012100E00021E3
:104FE00001F0FCFB641C102CEFDB68787070A87873
:104FF000B070E878F0702879307168797071A879AC
:10500000B07145E730B430F8012F438804784C7014
:1050100044788C708478CC7052BAC0785BBA0871CE
:10502000032A0ED24A48012A00EB4200A0F854306D
:1050300001D0022A05D1521E30BCD9B2D0B200F044
:10504000A5B830BC70472DE9F05F0546B0F8010007
:10505000052647BAB5F80300884690FA90F900246F
:10506000DFF8ECB0A7F1010A16E0A8193919B0F879
:105070000100032940BA0CD20BEB41020129A2F82E
:10508000540001D0022904D1C1B20AF0FF0000F09F
:105090007DF8B61C641CA4B24C45E6D3697888F848
:1050A0000110A97888F80210E97888F803102979A6
:1050B00088F80410BDE8F09F2DE9F041441CB0F8D9
:1050C00001000D4643BA608847BAA088641E46BAFC
:1050D000032B21D21E4900204FF0010C01EB4302AB
:1050E0000CFA00F139420AD0B2F854E0314202D051
:1050F0004EEA010E01E02EEA010EA2F854E0401C37
:105100001028EDDB012B01D0022B05D15B1E92F89C
:105110005410D8B200F03AF860786870A078A8709F
:10512000E078E8702079287160796871A079A871B9
:10513000BDE8F08110B5C0F30721C4B2084600F005
:1051400059FF034901EB4401088310BDFC0B00200B
:105150006820002010B55C210A4808F0F8F9002208
:105160000949104600F005FF40F2011206490120EE
:1051700000F0FFFEBDE8104040F20222024902208A
:1051800000F0F7BE68200020355100082DE9F041FD
:10519000234E04468846305D002104F0F6FC214F82
:1051A00007EBC405686801680020884768680168E3
:1051B0004046884707F83480305DBDE8F041012162
:1051C00004F0E3BC174911F8300070472DE9F041B5
:1051D00000221146012006F056FA124D0021104F10
:1051E00029606960A96006460C464FF44478E9607E
:1051F000385D414604F09DFC385D012104F0C5FC9A
:1052000005EBC400641C4660022CF1DB0024E0B214
:105210000021FFF7BBFF641C022CF8DBBDE8F08126
:1052200054EB0008C4200020F84B10B5002019787A
:10523000012404FA00F20A4205D0401CC0B208283A
:10524000F7D3082010BD84400C431C7010BD082803
:1052500005D201218140ED4802788A4302707047EF
:10526000EA4A91785078814201D108207047E74896
:105270001030405C491C01F0070191707047E34811
:1052800041788078491C01F00701814201D1012059
:10529000704700207047DD4841788078814201D115
:1052A000012070470020704705F072BD1CB5D8483A
:1052B000007880070BD0D7490020AFF21303CDE967
:1052C0000001014664224FF4FA7005F0A8FC1CBDF1
:1052D0002DE9FF4106F002FA8046FFF7DCFFCB4FD5
:1052E00080B10020F870387102460121CA4803F0ED
:1052F00078FAF86800B1804704B04046BDE8F04154
:1053000006F0F0B9C148B9781030465CC14806EBE8
:105310004601C03800EBC1046088082801D3082585
:1053200000E0C5B28DF80450608A4FF0004141EAB8
:10533000802000902A460DF10500A16808F0EEF8E3
:10534000684604F060FE0028D6D06088401B000448
:10535000000C608005D0A0682844A0600120F8708F
:10536000CAE7606804F015F8FFF77AFF3046FFF7E8
:105370006EFF04F10D01E07BFFF798FFEEE7A34B12
:1053800030B45A789C78511C01F00701A14208D032
:1053900003F11004A0545970D878002801D130BC12
:1053A00096E730BC704799484179491C01F00701E4
:1053B0004171704770B5994D002404EBC40005EBB2
:1053C00080000646242108F0C2F83471641CE4B25F
:1053D000082CF2D370BD0020914B024603EB001164
:1053E000401C0A804A804A60C0B28A600828F5D30F
:1053F0008648027042708270C2700271704770B548
:105400000C46054608210A2004F041F9002807D07F
:1054100012218170C0E90254BDE8704004F04EB919
:1054200070BD2DE9F04FDFF8F0B187B0584603F0BA
:10543000CFF804A803F0B2F900248DF816408DF8D7
:1054400018408DF817408DF819404FF0030A754841
:105450008DF81A4001258DF812408DF814A04FF0F8
:1054600002098DF81B508DF813408DF815900068D7
:105470006D494008B0FBF1F0ADF8100004A804F04D
:1054800039FD6248042141F6FF77C0888DF80A4053
:10549000C0F3090001EBC0064FEA16488DF80B4037
:1054A0008DF80C50ADF80080ADF80440ADF8026006
:1054B000ADF80670ADF808408DF80D50684603F061
:1054C0000EF98DF80A508DF80B408DF80C50ADF8A0
:1054D0000080ADF80440ADF80260ADF80670ADF89C
:1054E00008508DF80D50684603F0F9F88DF80A90D1
:1054F000FE1E8DF80B408DF80C50ADF80040ADF855
:105500000440ADF80260ADF80670ADF808408DF8C3
:105510000D50684603F0E3F88DF80AA08DF80B40B3
:105520008DF80C50ADF80040ADF80440ADF80260C5
:10553000ADF80670ADF808508DF80D50684603F0D0
:10554000CEF801220221584603F04BF90122102126
:10555000584603F046F900220121584603F041F96C
:1055600007B0BDE8F08F70B5284A0221921D2020B7
:1055700005F060FE254C08B10220E0801821254886
:1055800007F0E5FF23481821183007F0E0FF002559
:105590006571FFF70FFFFFF71EFFFFF742FFE560A2
:1055A00070BD70B506F09AF81D4D06468035FFF7C0
:1055B00057FE044608280AD204EB440005EBC0005D
:1055C000406803F0E6FE2046FFF741FEEFE70F4894
:1055D0000021017081704170C17001713046BDE8D9
:1055E000704006F07FB8094910B50878CA781043B2
:1055F00009D00879401CC0B20871B42803D3FFF762
:10560000D0FFFFF70EFFBDE81040CCE628000020D9
:10561000240000203423002000640040D420002017
:10562000F42100205400002040420F002DE9F047F3
:10563000FF4B81460E46186800210F460078C01CBB
:10564000C4B2FC48B0EB865F1CD0002004E01A68AE
:10565000125C5140401CC0B2A042F8D31868984672
:105660000155F549FE200870A01C03F060FE5FEABA
:10567000000C07D0FFF7D8FD0546082805D3604683
:1056800003F087FE3846BDE8F087EC4B05EB45029A
:1056900003EBC2000027C0F804C0C0F808C0C773FD
:1056A000A11C23F83210418007744682A0F81490A0
:1056B000D8F8002052784273D8F80010A21C8978DC
:1056C0008173DD49604607F029FF2846FFF757FE42
:1056D0000120D8E770B5D64D0446164628680370F9
:1056E0002A680420507028681A468170286831465C
:1056F000C01C07F013FFD24904EBC40001EB80008B
:10570000D0490089C988BDE870408FE730B50546AB
:1057100085B0084609786C468DF800102146FFF7E1
:1057200092FC05232246A8212846FFF7D3FF00203C
:1057300005B030BD30B5054685B0084609786C46E1
:105740008DF800102146FFF75DFC05232246A821B5
:105750002846FFF7BFFF0020EAE770B50546BA4CC0
:105760000846097821702146FFF7A6FC0723224648
:10577000A8212846FFF7AEFF002070BD70B5054692
:10578000B14C0846097821702146FFF70BFC07232E
:105790002246A8212846FFF79DFF002070BD70B566
:1057A0000546A94C0846097821702146FFF790FB71
:1057B00005232246A8212846FFF78CFF002070BD54
:1057C00070B50546A04C0846097821702146FFF7C0
:1057D00066FB05232246A8212846FFF77BFF002011
:1057E00070BD70B50546984C084609782170214671
:1057F000FFF7A4FB60782246801CC3B2A82128468C
:10580000FFF768FF002070BD70B505468E4C084656
:10581000097821702146FFF70DFB60782246801C35
:10582000C3B2A8212846FFF755FF002070BD70B510
:105830000546854C0846097821702146FFF7DDFAB8
:1058400060782246801CC3B2A8212846FFF742FF99
:10585000002070BD38B505467548046814F8032F5C
:10586000062A3DD008DC012A21D0022A1AD0042AB7
:1058700014D0052A08D11FE00F2A22D0102A34D0D4
:10588000802A23D0812A26D0009270A340F2AB4216
:1058900074A1042003F0B8FF002038BD214628463B
:1058A000FFF7C5FF21462846FFF7AEFFF4E7214684
:1058B0002846FFF796FFEFE721462846FFF780FFCF
:1058C000EAE721462846FFF76AFFE5E72146284632
:1058D000FFF754FFE0E721462846FFF73EFFDBE7EE
:1058E00021462846FFF726FFD6E721462846FFF740
:1058F0000DFFD1E75249486A20F0090048620020B4
:1059000081F82A0070474E4A00EBC00052F8203060
:1059100061F3000342F820307047494A00EBC001B0
:1059200052F8213043F0020342F821300121EAE726
:1059300008B500218DF8001081218DF80310C0B248
:1059400004236A462121FFF7C5FE08BD0146AFF2D8
:105950001F0054E51CB501688A070DD521F002012E
:10596000016000F10C01CDE900014088424B024684
:10597000002105F054F91CBD21F0080101600079F7
:105980000021FFF7C0FF02B03CA3BDE8104040F289
:105990003A3234A1042003F037BF0146AFF24B0086
:1059A0002DE51CB52648012400F12401C08CA0F58A
:1059B0007F42FF3A0AD048B101F10C02AFF2250351
:1059C000CDE900120246002105F029F91B48D83024
:1059D000CDE900401B48C08800EB80008000AFF29A
:1059E00093030246002105F01AF92046FFF795FFC0
:1059F00000201CBD7CB51248002200F1240480F870
:105A00002A20888860800E480125416A41F00801FB
:105A10004162052003F0EAFC608804F10C02A0F565
:105A20007F41FF393BD010B1AFF2910330E036E057
:105A30001CEB00080000C0FFA41F002074220020FF
:105A4000D420002028000020FC0B0020756E6B6E17
:105A50006F77206D6F6462757320636F64652025B6
:105A6000780D0A00536F757263655C4150505C435A
:105A7000616E436D642E63009B5900086C6F7374F4
:105A8000206865617274626561740D0A000000002F
:105A9000CDE900420246002105F0C1F802E01046BF
:105AA00005F08DF82846FFF738FF00207CBDC1497E
:105AB0000968C91CCA7812F07F0205D0012A04D0F7
:105AC000022A03D00020704794E76AE712E7B94939
:105AD00010B509688978212902D0282905D102E06A
:105AE000FFF7E5FF01E0FFF7B5FE002010BD10B5A0
:105AF00005F0C5F94FF0E021896989B2084307F044
:105B000005FD07F0F9FC4FF4FF7190FBF1F201FB8A
:105B1000120000F5007080B210BD2DE9F04107467B
:105B20000C460120FEF724FAA348A44A00EB041413
:105B300007EBC70102EB8101E089088121886068D9
:105B4000FFF7A6F800282FD09D4D9E49994EE88872
:105B500028810120087030684078042819D009286D
:105B600004D00D2805D0FFF719F815E0FEF782FFE5
:105B700012E0FEF7CBFF07463068807805280CD18D
:105B800028899149B1EB805F07D1FFF7B0FF2881E9
:105B900003E03846FFF79BFF0746002F04D0E0895B
:105BA0002989BDE8F04141E5BDE8F0812DE9F041EA
:105BB000064681480D4600EB061401F10B082088CB
:105BC000002758B16188AA7A114489B2884202D369
:105BD0001FD9082A1DD22780606838E0E87AFE289D
:105BE000E2D1287B401D208003F0A1FB6060A06013
:105BF00018B1AA7A414607F091FCA97AA068084436
:105C0000A060A87A608026736868C0F38920E0816C
:105C10000DE0606818B14146A06807F07FFCA97AE2
:105C2000A0680844A0606088A97A08446080618800
:105C300020888142B8D10028B6D0606818B13146BA
:105C40000846FFF76AFF27806780606808B103F0A5
:105C5000A0FB6760A8E710B5C41CC0780C2803D16E
:105C6000601C05F0FCF808B1002010BDB4F80D0070
:105C7000534940BAC0F30A00C880FFF7D2FB0120A5
:105C800010BD10B500F108018089C0F309024C482D
:105C9000C38840F2FF309A4203D0824201D00020F4
:105CA00010BD824201D1002000E00120FFF77EFFFD
:105CB000F5E7424A00EBC00002EB80000021817151
:105CC0007047001F082801D2C0B2F2E7704770B5D4
:105CD000384C054616462068037022680420507030
:105CE00020681A46817020683146C01C07F016FCF7
:105CF0003348C1882846BDE8704097E43049C86001
:105D000070478168002901D0C068084770471CB5FA
:105D1000C4B202208DF8000000208DF80300201D81
:105D2000C0B24FF6FF734FF4FA72012103F093FBF8
:105D3000224804EBC40200EB820001218171018141
:105D400006236A4621212046FFF7C4FC1CBD0146FC
:105D5000AFF24500FFF753BB1CB5184A00EBC0017A
:105D600002EB81039B79002B12D112F82110090755
:105D70000ED402F51E71CDE900011148C08800EB78
:105D800080008000AFF239030246002104F047FF93
:105D90001CBD0B480C49C088B1EB805F01D00120CD
:105DA000DAE7704710B5FFF7FEFAFFF7F2FFBDE83C
:105DB000104018E41CEB0008F4210020D42000203F
:105DC000280000201D0000200000C0FF2DE9F04148
:105DD000544F04460E469046385D002103F0D5FE30
:105DE000514904EB440201EB8205F006A968000E5C
:105DF00009688847A868016840468847A91901F8DA
:105E00000A8C385DBDE8F041012103F0BEBE70B5DB
:105E1000444E04460D46305D002103F0B6FE80205E
:105E2000414940EAC50004EB440201EB8205C0B2DF
:105E3000A96809688847A868406880470546305DBA
:105E4000012103F0A2FE284670BD2DE9F041002299
:105E50001146012005F017FC05462421324807F0C1
:105E600076FB314F2F4E00244FF44478305D41468D
:105E700003F05FFE305D012103F087FE04EB440078
:105E800007EB8000641C8560032CEFDB254D0024AC
:105E9000ED1CE0B22A5D0B21FFF798FFE0B2FF2274
:105EA0000A21FFF793FF641C032CF2DBBDE8F081AD
:105EB00030B41D4C00EB400304EB83035C780123FA
:105EC0008B4012B12343DAB201E024EA030230BC72
:105ED0000B217BE710B50C460B21FFF798FF012241
:105EE000A240024201D0012010BD002010BD30B4FC
:105EF0000D4C00EB400304EB83030A405B7830BC9D
:105F00008B431A430B2161E7074A00EB400002EB89
:105F10008000012240788A40024201D0012070476F
:105F20000020704756EB0008642300206B4810B532
:105F30006021C1606A494161816841F0010181606D
:105F4000684C0121204602F0EFF92046BDE81040E0
:105F5000012102F01EBA10B50C460021092003F001
:105F600096FB20B101218170848003F0A7FB002003
:105F700010BD5B4B00EB4000C03343F8201003EB37
:105F80008000426070477CB505460121112001F078
:105F90001CF800248DF807408DF806403F20ADF82E
:105FA000040001A9504800F0D4FD0B208DF800003A
:105FB0000F208DF801008DF8024001208DF80300BC
:105FC000684603F05EF8012306226021444805F08C
:105FD000B9F94648B0FBF5F1002004F040FC00237D
:105FE000434A0121184604F086FD01213D4802F094
:105FF000D0F97CBD062801D300207047384900EB5A
:106000004000C03101EB800080687047334810B514
:1060100001214160816821F0010181600021314846
:1060200002F082F90021092003F031FB002806D09C
:1060300000218170C170BDE8104003F03FBB10BD6E
:1060400070B5807820B1012816D1FFF76FFF13E0FB
:1060500000F014F8224D0024C03504EB440055F83C
:10606000201019B105EB80004068884721A007F097
:106070002BFE641C062CF0D3002070BDF0B5002070
:10608000174B0146C03300EB400203EB8202401C79
:1060900091600628F7D3124D002101EB4102002048
:1060A00005EB820400EB400203EB820234F810603F
:1060B0009768401C3E4496600628F3D3491C10297B
:1060C000EBD3002000EB400103EB8101401C8A6808
:1060D00012098A600628F5D3F0BD000000000240D6
:1060E00088230020002401400010014040420F009E
:1060F000575F00080D0A4144435F4E6578744D7543
:106100006C7469706C6578696E670D0A0000000038
:1061100070B5EB4DFF22134605F5807605E010F8CB
:10612000014B54402A5D5A40335D491EF7D243EA81
:10613000022070BD30B50C460546FFF7E9FF010AA5
:1061400029552919487030BD70B5054600EB05107A
:10615000C0EBC511DB4800EB81044FF4C67120464B
:1061600007F0F5F9002084F88C0184F89C0184F88C
:10617000AC01012D02D0022D1BD10CE0D149D24A35
:1061800001F5DE70C1F84C2300F5CA7026210160CC
:10619000012141600CE0CB49CC4A01F55E70C1F8A9
:1061A000082500F5CA7027210160022141600D21F8
:1061B00001762846BDE87040FEF732B9401CC44B5A
:1061C00010F8011C4288C13901EB41010D31C9B2FF
:1061D00003EB410152BA0A83828852BA4A83C088CB
:1061E00040BA88837047BB4810B590F8411131B16F
:1061F00000EB011050F80C1C09B100208847BDE8E5
:10620000104000F055B810B5044604210A2003F0F0
:106210003EFA002806D0132181708460BDE810404A
:1062200003F04CBA10BDAFF24100ECE71CB5AA492F
:106230000022AFF20D03CDE900210246002104F057
:10624000EEFC1CBDA34810B590F8411131B100EB34
:10625000011050F80C1C09B100208847BDE810401F
:1062600000F026B8AFF22300CDE71CB59A4A0446E9
:106270003032107002205070080A9070D1700020E7
:106280001071062151711046FFF754FF9249082200
:1062900030310120FDF754FF8F481830AFF23B0337
:1062A000CDE9004000221146962004F0B8FC1CBD48
:1062B000884890F8411190F8402191420AD101F1AB
:1062C000800180F84111D0F84411002912D04FF01C
:1062D000000008470ED201F1010280F8412100EBD5
:1062E0000110017819B1012904D180689EE70830B6
:1062F00003C8BAE7704770B504460D460120FDF7A4
:1063000037FE7548183004F05AFC2078C13804284C
:1063100003D829462046FFF751FFBDE87040C7E784
:106320007CB5054600F10804007AC13805281ED264
:10633000607802281BD1A078C01CC6B23146204626
:10634000FFF7E6FEAA1980B2117AB1EB102F03D144
:10635000537AC1B299420BD0118960A349BACDE9F1
:1063600000014FF49A7262A1042003F04DFA7CBD43
:1063700031462046BDE87C40BDE78068002800D05B
:10638000004770474FF4A47107F0E1B8514890F806
:10639000412190F840118A4205D821B100EB02104A
:1063A00010F8100C70470220704770B54A4804F08E
:1063B00006FC4948183004F002FC4648FFF7E2FFAB
:1063C000444D00201C3DC121287769620321A96248
:1063D0002A46012102F1100382F82C1014222C46C7
:1063E0005A6204F1200384F83C00C2245C62102449
:1063F0009C622B461C4683F84C105A6504F14003FE
:1064000084F85C00C3245C621B249C622B461C46FF
:1064100083F86C105A6704F1600384F87C00C4248C
:106420005C6226249C622B46942483F88C10E250F4
:106430001C4604F1800384F89C00C520586231207A
:1064400098622046B42380F8AC101A500A2085F8D0
:106450005C01BDE870402BE7AFF2B100D3E62DE957
:10646000FC410124AFF21F36164DAFF24B1704EB7F
:106470000410C0EBC41005EB8000C0E96C67204637
:10648000FDF7D2FD641CE4B2052CF0D311484FF4A3
:10649000CA711C3807F05BF80E4818380021AFF2BB
:1064A0004703CDE900104FF47A700246012104F051
:1064B000B6FBBDE8FC81401CC0B2FDF741BE000048
:1064C0005CEB0008F014002000440040004800404D
:1064D00068200020AC240020F42500206D6974663B
:1064E00020637263206661696C2025782C25780012
:1064F000536F757263655C4150505C716D692E63BA
:10650000000000000A6800F025B84B680A461946EA
:1065100000F020B803C8416008607047D0E900125D
:106520004A6011600060406070470168814201D19B
:10653000012070470020704702680A60516040687F
:1065400048600160704700B50346FFF7F5FF1B6028
:106550005B6000BD5060C0E900210860704700002A
:1065600070B5D8211C4806F0F2FF1B4D002202EB4B
:10657000C20005EBC00445F830406460002004EB25
:10658000001101F108038B60CB600874401CC0B29D
:106590000428F4D3521CD2B2032AE8D370BD70B5DC
:1065A00000EBC0030C4800EBC30505EB0110426192
:1065B00008300446FFF7B2FF20462946BDE8704088
:1065C000FFF7A3BF044A00EBC00002EBC00000EBE2
:1065D00001100830FFF7A2BF442600202DE9F0414A
:1065E0000546FFF7A2FF002845D12E68DFF8D882C4
:1065F000F068102826DA00EB400108EB8104B34F65
:10660000A07906280DD2217A1E290AD2FFF7F2FCC2
:1066100082B2207A07EB40000283217AACA007F017
:1066200053FB607A06280DD2E17A1E290AD2FFF7C1
:10663000E1FC82B2E07A07EB40000283E17AAAA093
:1066400007F042FB3046FFF769FF29463046FFF767
:106650005CFF2868C06810280DDA00EB400108EBE9
:106660008100012102799140CAB24179C078BDE828
:10667000F041FFF73CBCBDE8F0812DE9F05F00245C
:10668000FEF7A4FDFFF7E1FBFF22C0218E4806F0D4
:1066900057FF254600218C4B083409E005EB4500E7
:1066A00003F8201003EB8000417085706D1CEDB283
:1066B000A542F3D3A1464F464FF0020B4FF001081D
:1066C0004FF0F00C4FF0040AA41C17E007EB470052
:1066D000A7EB090103F8208003EB80000D1D80F873
:1066E00001B0817080F803B0057180F805C080F8B2
:1066F00006A0C171C91D7F1C0172FFB2A742E5D37C
:106700002546A61C1CE004EB4400611B03F820B0E6
:1067100003EB80008A1C80F801B082708F1D80F826
:1067200003B0077180F805C080F806A0C271D71DBC
:10673000077205270B3147728272641CC172E4B282
:10674000B442E0D303253246F41C15E006EB4600C4
:10675000B11A03F8205003EB80000F1D80F8018070
:10676000817080F80380077180F805C08571C17160
:10677000C91C761C0172F6B2A642E7D3264604F184
:10678000010916E004EB4400A11B03F820A0CA1C79
:1067900003EB8000CF1D80F80180827080F80380B9
:1067A000077180F805C0891D8571C271641C017272
:1067B000E4B24C45E6D3514A51490320FFF7D9FBD7
:1067C0004E4A4F4948320420FFF7D3FBBDE8F05F43
:1067D0004A4A4B4990320520FFF7CBBB2DE9F041E7
:1067E0008046394F00EB480607EB86040D46A1783A
:1067F00060782A46FFF75CFBA27861782B4641A0BF
:1068000007F062FA17F82600012805D0022811D0F7
:10681000032801D0042833D1A079A0F103002DB1C1
:1068200003282DDAE179C0B2424615E0032827DAC1
:10683000E17920E0A079A0F103008DB1032804DA0A
:10684000E179C0B24246FFF7AAFE607AC01E032873
:1068500016DAA17AC0B2FF22BDE8F041FFF79FBE71
:10686000032803DAE179C0B2FFF7ACFE607AC01EFC
:10687000032805DAA17ABDE8F041C0B2FFF7A2BE55
:10688000F9E600EB4001104800EB81008178407888
:10689000FFF73ABB2DE9F04100250B4F2C460126AE
:1068A00004EB440007EB800081784078FFF72CFB75
:1068B00018B106FA04F0284385B2641CE4B2102C27
:1068C000EED32846D7E600001C27002068200020D1
:1068D0000D0A256443757272656E637920697320B1
:1068E00025640D0A000000000D0A2564566F6C74C3
:1068F0006167652069732025640D0A004426002025
:10690000DD6500080D0A43686C3D25642C537562F3
:1069100043686C3D25642C456E61626C653D256461
:106920000D0A000010B5012000F073FBBDE8104017
:10693000002000F06EBB1F49086070471D49091F09
:10694000086070471B498431086070471A4A1188F3
:1069500021F46071014311807047174A118821F0BA
:106960007F01014311807047134A08B52C3A104447
:106970000090016008BD104908B52C39084400900A
:10698000008808BD0B489C300068C0B270470A48B8
:106990000830018841F00101018070470548A030AE
:1069A0000068C0B2704704480830018841F0020115
:1069B0000180704704860D422C6C0040374900204E
:1069C0000860091D0860091D0860091D0860334939
:1069D000334814310860704730B5304A8379016814
:1069E00053B313688B431360111D0B680468A343F2
:1069F0000B60017911440B68046823430B60274B3B
:106A0000083319680468A14319601C1D21680568D2
:106A1000A94321604179102905D011440A68006812
:106A200002430A6030BD1968026811431960216889
:106A300000680143216030BD0079104402688A4338
:106A4000026030BD0021016001710C224271817130
:106A50007047124910310A6802430A6070470146C4
:106A60000E4A0020143212680A4200D001207047FA
:106A70000A49143108607047084A0146002012682C
:106A8000064B0A4014331B680B4202D0002A00D088
:106A9000012070470149143108607047000401402B
:106AA000FFFF0F008E4910B5884206D10121042056
:106AB00000F09DFA002104203BE08A49884206D17B
:106AC0000121082000F093FA0021082031E08649D6
:106AD000884206D10121102000F089FA00211020FF
:106AE00027E08249884206D10121202000F07FFA68
:106AF000002120201DE07E49884206D1012140204E
:106B000000F075FA0021402013E07A49884206D14E
:106B10000121802000F06BFA0021802009E07649F5
:106B200088420AD184150121204600F060FA002134
:106B30002046BDE8104000F05ABA10BD10B5012142
:106B4000084600F054FA0021BDE81040012000F092
:106B50004EBAF0B5CC78002204F00F03E40601D55C
:106B60008C7823430C784FF00F0C4FF0010EDCB102
:106B700005680E880EFA02F42640A64210D196004F
:106B80000CFA06F725EA070703FA06F5CE783D4327
:106B9000282E02D0482E02D002E0446100E00461B9
:106BA000521C082AE5D305600A88FF2A1CD94468CC
:106BB000002202F108060EFA06F50E882E40AE42BB
:106BC0000ED196000CFA06F7BC4303FA06F7CE780E
:106BD0003C43282E00D14561CE78482E00D1056176
:106BE000521C082AE5D34460F0BD4FF6FF710180C6
:106BF000022181700421C170704702460020926812
:106C00000A4200D001207047806880B27047024677
:106C10000020D2680A4200D001207047C06880B2CC
:106C2000704701617047416170470AB10161704767
:106C300041617047C160704741F480328261816177
:106C400082618169806970472C4B10B51A684FF6D4
:106C50008074224042EA00100843186010BD2849A1
:106C6000C8617047F0B5254C002801DAE36900E0FF
:106C70006368450D2E0185B2C0F30157B540C0F3DE
:106C80000342032F05D0C6020AD503269640B3431C
:106C900007E023F07062636823F07063636002E0D2
:106CA000AB4343F0706201B12A43002801DAE2618C
:106CB000F0BD6260F0BD10B58A0721F003040F49F2
:106CC000120F21440F238C6893409C438C608B6887
:106CD000904003438B6010BD0949DC310860704768
:106CE00000080140000C0140001001400014014068
:106CF00000180140001C014000200140000001403C
:106D00000000204210B501210C07204600F078F960
:106D10002046BDE81040002100F072B92149086208
:106D200070472049086170471F4A116821F0E0014F
:106D30000143116070471B49A031086070471A4B2E
:106D40001A6822F0030202431A601848026842F0EF
:106D500004020260012905D020BF016821F004016E
:106D60000160704730BFF8E70F48016841F0040147
:106D70000160016841F0020101600C48016841F0C6
:106D80000401016030BF7047074A01460020526885
:106D90000A4200D00120704703490A6842EA800095
:106DA0000860704700000E420070004010ED00E0E7
:106DB000A548016841F0010101604168A34A114002
:106DC00041600168A24A11400160016821F48021FC
:106DD0000160416821F4FE0141604FF41F018160B0
:106DE000704799490A6822F480320A600A6822F4DE
:106DF00080220A60B0F5803F07D0B0F5802F03D124
:106E0000086840F4A02008607047086840F48030AB
:106E1000F9E70346002059098B4A01290AD00229C3
:106E20000AD0516A03F01F02012393400B4200D0A5
:106E3000012070471168F5E7116AF3E718B50020E3
:106E40004FF4A06400903120FFF7E3FF0099491C44
:106E50000091A14201D00028F5D03120FFF7D9FFE1
:106E6000002800D0012018BD774A116821F0F801F0
:106E700041EAC00010607047764908607047724B65
:106E80005A68084322F47C121043586070477149D5
:106E9000086670476C4A516821F003010143516054
:106EA00070476948406800F00C007047664A5168B6
:106EB00021F0F001014351607047634A516821F4A9
:106EC000E0610143516070475F4A516821F46051AD
:106ED00041EAC000506070475B4A0029517A01D0F6
:106EE000014300E08143517270475A49D83108602C
:106EF0007047554A516821F4404101435160704741
:106F00005149002281F8202081F82020012802D058
:106F1000042802D1052081F8200070474E490860FE
:106F2000704749490A6A02430A6270474A4944392C
:106F30000860704730B5444A5168484B11F00C0165
:106F400003D0042901D0082901D0036012E0516860
:106F5000536801F470114FF0020413F4803F04EB06
:106F6000914102D053689B0301D53D4B00E03B4B60
:106F70005943016051680F2303EA1111394B5C5CDE
:106F80000168E14041605468072505EA14241C5D4E
:106F900021FA04F48460546805EAD4241B5DD940C6
:106FA000C1605268032303EA92322E4B1B1F9A5C86
:106FB000B1FBF2F1016130BD234A0029516901D0D2
:106FC000014300E08143516170471F4A00299169E4
:106FD00001D0014300E08143916170471A4A0029C2
:106FE000D16901D0014300E08143D1617047164A65
:106FF0000029D16801D0014300E08143D16070478E
:10700000114A0029116901D0014300E08143116157
:10701000704711494039086070470E49C86470478D
:107020000949C87170470848416A41F0807141625E
:107030007047054A0146002092680A4200D00120AC
:107040007047014988727047001002400000FFF845
:10705000FFFFF6FE000042428004424200127A0026
:1070600000093D0044000020994910B588420AD12A
:10707000841401212046FFF7BAFF2046BDE81040E6
:107080000021FFF7B4BF9349884202D101210414C3
:1070900004E0914988420AD10121C4132046FFF738
:1070A000AFFF2046BDE810400021FFF7A9BF10BD8B
:1070B00030B502884C8802F441530A88CD882243B7
:1070C0008C882C4322430C8922434C8922438C898F
:1070D0002243CC8922431A430280828B22F400622D
:1070E0008283098A018230BDF0B505460C46022034
:1070F0000021AA8B85B001264FF240031A40AA83D3
:107100002884AF8BA268022A21D0A08800B1022671
:107110006846FFF70FFFE1880098B1F5007F2CD09B
:107120007101B0FBF1F000EB8000A1684000B0FB02
:10713000F1F0401D80B20A21B0FBF1F000F0010136
:10714000401A4FF6FF72C0F34F0002EA0121821E7F
:10715000FE2A01D302200021E288084302432A8448
:1071600020886188A2890843A188114308433843D5
:1071700040F40060A88305B0F0BD000AD3E7002109
:10718000018041808180C180018141818181C181F3
:107190000721018270470021018041808180C180E8
:1071A00002228260818170470029018802D041F06B
:1071B000400101E021F04001018070470029818BEE
:1071C00002D041F4806101E021F480618183704745
:1071D000090901238B40002A828899B201D00A4311
:1071E00000E08A4382807047002A828801D00A43E7
:1071F00000E08A43828070478181704780897047B0
:10720000A1F57E420188FF3A02D041F4807101E08D
:1072100021F48071018070470029818802D041F0FB
:10722000040101E021F0040181807047028822F40A
:107230000062028002880A4302807047018841F49C
:107240008051018070470029018802D041F400512B
:1072500001E021F4005101807047012901D0008B29
:107260007047808A7047008A7047B1F5804F018867
:1072700003D021F480410180704741F48041FAE756
:107280000246002012890A4200D001207047C943FB
:107290000181704730B501F00F030125024605FA60
:1072A00003F40020A3B2090905FA01F49188A4B2FD
:1072B000128921401A4202D0002900D0012030BD9D
:1072C00001F00F0201219140C94301817047000084
:1072D0000030014000380040003C0040FE4910B53D
:1072E000884202D10121C41486E0B0F1804F09D058
:1072F000FA4988420DD101210220FFF781FE0021C9
:10730000022064E001210846FFF77AFE00210120F7
:107310005DE0F349884206D101210420FFF770FEA9
:107320000021042053E0EF49884206D101210820C2
:10733000FFF766FE0021082049E0EB49884206D1AC
:1073400001211020FFF75CFE002110203FE0E749FB
:10735000884206D101212020FFF752FE0021202083
:1073600035E0E349884202D10121441444E0E14977
:10737000884202D10121CC043EE0DF49884202D19B
:1073800001210C0538E0DD49884202D101214C057C
:1073900032E0DB49884206D101214020FFF730FE70
:1073A0000021402013E0D749884206D101218020E6
:1073B000FFF726FE0021802009E0D34988420AD148
:1073C000841501212046FFF71BFE00212046BDE861
:1073D0001040FFF715BECD49884202D101210C04AF
:1073E0000AE0CB49884202D101214C0404E0C9499A
:1073F00088420AD101218C042046FFF7F8FD20467F
:10740000BDE810400021FFF7F2BD10BD30B5028885
:10741000B14CB74DA0420DD0A8420BD0B0F1804F77
:1074200008D0AE4B984205D0AD4B984202D0AD4B40
:10743000984203D122F070034A881A43AA4B98421B
:1074400006D0AA4B984203D022F44073CA881A434C
:1074500002808A8882850A880285A0420AD0A842D2
:1074600008D0AA4A904205D0A94A904202D0A94A1F
:10747000904201D1097A01860121818230BD30B567
:10748000028C22F001020284028C8388048B22F099
:10749000020224F073050C882C430D8915434A8899
:1074A0002A438D4DA8420BD0914DA84208D0974D4C
:1074B000A84205D0964DA84202D0964DA8420DD1C3
:1074C00022F008054A8923F440732A4322F0040578
:1074D0008A882A438D891D43CB892B43838004836B
:1074E000C9888186028430BD70B5028C22F01002FA
:1074F0000284028C8388048B0D8824F4E6464FF6C0
:10750000FF7404EA052535430E8922F0200204EABF
:10751000061616434A8804EA021232436E4EB042FF
:1075200002D0734EB04215D122F080064A8923F46E
:10753000406304EA0212324322F040068A8804EAD9
:10754000021232438E8904EA86061E43CB8904EA7E
:107550008303334383800583C9880187028470BD18
:1075600070B5028C22F480720284028C8388848B32
:107570000D8824F0730425430E894FF6FF7422F41E
:10758000007204EA062616434A8804EA02223243BD
:10759000514EB04202D0564EB04215D122F4006690
:1075A0004A8923F4405304EA0222324322F48066DB
:1075B0008A8804EA022232438E8904EA06161E43B0
:1075C000CB8904EA0313334383808583C988818789
:1075D000028470BD70B5028C22F480520284058C46
:1075E0008288838B0C8823F4E6464FF6FF7303EA08
:1075F0000424344325F400560D8903EA0535354348
:107600004E8803EA06362E43334DA84202D0384D49
:10761000A84205D122F480458A8903EA82122A43CE
:1076200082808483C988A0F84010068470BD828B54
:1076300022F440628283828B4FF6FF7303EA0121BA
:107640000A4382837047828B22F00C028283828BF2
:107650000A4382837047028B22F440620283028BCA
:107660004FF6FF7303EA01210A4302837047F0B526
:10767000048C24F010040484078B068C4FF6FF74EE
:1076800004EA011527F4734704EA0331394304EA95
:1076900002220A4326F02001294341F0100102830F
:1076A0000184F0BD028B22F00C020283028B0A439C
:1076B000028370472DE9F0410C460E884988A28864
:1076C000238905463EB1042E48D0082E2E8C4FF655
:1076D000FF704AD020E03AE0002C01400004004056
:1076E00000080040000C0040001000400014004062
:1076F00000340140004C0140005001400054014062
:1077000000180040001C00400020004000400140E4
:10771000004401400048014026F480562E84AF8B7F
:107720002E8C00EA022200EA013127F473473A4323
:1077300000EA0330104326F400520A4342F4805119
:10774000A8832984E1882846BDE8F0416FE700F06E
:10775000BCFAE1882846BDE8F041A3E7FFF787FFC0
:10776000E1882846BDE8F04175E726F480762E844E
:10777000AF8B2E8C00EA012100EA0310104327F0A2
:10778000F307384326F400720A4342F48071A88359
:107790002984E1882846BDE8F04154E72DE9F0410D
:1077A0000C46002649880746012501B90226A28811
:1077B000012A00D10225208823890028384610D0CC
:1077C000FFF755FFE1883846FFF745FF23892A4632
:1077D0003146384600F079FAE1883846BDE8F04194
:1077E00060E700F072FAE1883846FFF75BFF238913
:1077F0002A4631463846FFF73AFFE1883846BDE869
:10780000F04128E710B50A884B88CC881A438B884A
:1078100023431A430B891A434B8989891A430A4324
:10782000A0F8442010BD4FF6FF7181800021018037
:10783000C1804180017270470021018041808180B8
:10784000C180018141818181C18170470021018016
:10785000418001228280C180018170470021018026
:1078600041808180C18001814181818170470029EF
:10787000018802D041F0010101E021F00101018005
:107880007047002930F8441F02D041F4004101E064
:10789000C1F30E0101807047002A828901D00A439A
:1078A00000E08A4382817047818270471143A0F8CB
:1078B00048107047002A828901D00A4300E08A43B9
:1078C00082817047018921F0070101817047028997
:1078D00022F070020A430281704700B50346FFF7A9
:1078E000F6FF188940F00700188100BD70B51646F4
:1078F0000D46602904464FF0010231460AD000F0DF
:10790000E4F929462046FFF7E2FF208940F007000E
:10791000208170BDFFF7ABFEF3E730B504894FF669
:10792000FF7505EA03231343E4B20B4323430381AA
:1079300030BD10B50446FFF7F0FF208940F0770016
:10794000208110BD10B50446FFF7E7FF208940F401
:107950008040208110BD018582827047028822F01C
:1079600070020A430280704770B50589048B068C4B
:1079700025F007050D434FF6FC410C4040F2011184
:107980000C434FF6FF7101EA031126F02206114362
:10799000314305810483018470BD028B22F07002A3
:1079A0000A4302837047028B4FF6FF7322F4E042D2
:1079B00003EA0121114301837047828B22F0700298
:1079C0000A4382837047828B4FF6FF7322F4E042B2
:1079D00003EA01211143818370470029018802D005
:1079E00041F0800101E021F0800101807047002911
:1079F000818802D041F0040101E021F0040181807E
:107A000070470029818802D041F0080101E021F08F
:107A10000801818070470029818802D041F001016E
:107A200001E021F0010181807047028B22F0080201
:107A30000A4302837047028B4FF6FF7322F4006201
:107A400003EA0121114301837047828B22F008026F
:107A50000A4382837047828B4FF6FF7322F40062E1
:107A600003EA0121114381837047028B22F0040253
:107A70000A4302837047028B4FF6FF7322F4806241
:107A800003EA0121114301837047828B22F0040233
:107A90000A4382837047828B4FF6FF7322F4806221
:107AA00003EA0121114381837047028B22F0800297
:107AB0000A4302837047028B4FF6FF73C2F30E0234
:107AC00003EA0121114301837047828B22F0800277
:107AD0000A4382837047828B4FF6FF73C2F30E0214
:107AE00003EA0121114381837047028C22F00202D4
:107AF0000A4302847047028C22F008020A4302847F
:107B00007047028C4FF6FF7322F0200203EA011146
:107B1000114301847047028C4FF6FF7322F08002FC
:107B200003EA0111114301847047028C4FF6FF7381
:107B300022F4007203EA0121114301847047028C90
:107B40004FF6FF7322F4006203EA0121114301841E
:107B50007047028C4FF6FF7322F4005203EA0131A2
:107B600011430184704710B50123048C8B409C4362
:107B70000484038C8A401343038410BD10B504238E
:107B8000048C8B409C430484038C8A4013430384FD
:107B900010BD30B50124058C00F118038C40A543BD
:107BA000058489B108290FD0091FC1F34E0018447C
:107BB000016821F4E041016001684FF6FF7303EAB8
:107BC00002221143016030BD03EB5100016821F036
:107BD000700101600168F4E70029018802D041F0DA
:107BE000020101E021F002010180704700290188B3
:107BF00002D041F0040101E021F00401018070474E
:107C00000029818802D041F0800101E021F080014B
:107C100081807047028822F00802028002880A43AD
:107C200002807047828822F07002828082880A4334
:107C300082807047028922F00702028102890A438A
:107C400002817047028922F08002028102890A4380
:107C500002817047818470478185704781867047B3
:107C60000187704781877047A0F8401070470288ED
:107C700022F44072028002880A4302807047808E9C
:107C80007047008F7047808F7047B0F84000704792
:107C9000808C7047008D704702460020128A0A428D
:107CA00000D001207047C94301827047024600207E
:107CB000138A92890B4202EA010202D0002A00D004
:107CC00001207047C9430182704770B5048C24F0CD
:107CD00001040484058B048C4FF6FF7606EA031337
:107CE000134325F0F3052B4324F002020A4342F02C
:107CF00001010383018470BD424A0029118801D02B
:107D0000014300E08143118070473E48001D018817
:107D100041F01001018070473A48001D018821F0B0
:107D200010010180704737481C30008835491831F0
:107D3000098840EA0140704700B50246FFF7E5FFB9
:107D40003049100C18310880081D02805DF804EBE2
:107D5000E2E700B50246FFF7D8FF2A49C2F3034025
:107D600008310880081D02805DF804EBD4E700B5F7
:107D70000246FFF7CAFF2349100C20310880081D76
:107D800002805DF804EBC7E71E481030008800074A
:107D9000010B1C4814300088084370471948001D27
:107DA00001888906FCD570471648001D018821F01E
:107DB0000801018001880907FCD570470146114A76
:107DC0000020121D12880A4200D0012070470D4980
:107DD000091D0A8882430A8070470A49091D0988DB
:107DE000C2B21140074A1288024202D009B10120F2
:107DF0007047002070470349091D0A8882430A80A2
:107E00007047000000280040FE4A116801F0380168
:107E1000014311607047FB490A6822F008020A60BA
:107E20000A6802430A607047F6490A6822F01002A5
:107E30000A600A6802430A607047F248F2494160EA
:107E4000F24941607047EF48EF494160EF494160B6
:107E50007047EC48016941F0800101617047E948D1
:107E6000016941F0800101617047E6490420CA6858
:107E7000D20701D001207047CA68520701D50220FD
:107E80007047C968C906FBD50320704700B5034693
:107E9000FFF7EBFF02E0FFF7E8FF5B1E012803D0CE
:107EA000002B00D1052000BD002BF4D1FAE770B5FE
:107EB00005464FF430263046FFF7E8FF042813D17B
:107EC000D04C206940F0020020616561206940F0DB
:107ED000400020613046FFF7D9FF052804D0216912
:107EE00041F6FD721140216170BD30B54FF430256F
:107EF0002846FFF7CBFF042812D1C24C206940F07E
:107F000004002061206940F0400020612846FFF70E
:107F1000BDFF052804D0216941F6FB7211402161A3
:107F200030BD00B50346FFF7A0FF02E0FFF79DFF5D
:107F30005B1E012803D0002B00D1052000BD002BC3
:107F4000F4D1FAE730B54FF430252846FFF7E9FFC2
:107F5000042812D1AB4C206940F004002061206954
:107F600040F0400020612846FFF7DBFF052804D0E1
:107F7000216941F6FB721140216130BDA149002009
:107F8000C969890700D50120704770B5A525FFF79D
:107F9000F5FF00B100254FF430263046FFF776FF9D
:107FA000042827D1974C9848A0609848A060206981
:107FB00040F020002061206940F040002061304600
:107FC000FFF764FF41F6EF7604280ED1206941F6F1
:107FD000DF7108402061206940F0100020618C486A
:107FE00005804FF40050FFF751FF052802D02169AA
:107FF0003140216170BDF8B5064600204FF4005CA9
:1080000000900D466046FFF741FF042818D17D4CD3
:10801000206940F00100206135806046FFF736FF9F
:1080200041F6FE77042806D1B61C280C0096308055
:108030006046FFF72BFF052802D0216939402161F6
:10804000F8BDF0B506464FF400570D463846FFF729
:108050001DFF04280ED16B4C206940F00100206107
:1080600035803846FFF712FF052803D02169BA1E74
:1080700011402161F0BDF0B506464FF400570D46A2
:108080003846FFF703FF042813D15E4C5E48A0601A
:108090005E48A060206940F01000206135803846BD
:1080A000FFF7F4FE052804D0216941F6EF72114074
:1080B0002161F0BD2DE9F041C043C7B2C0F30726EE
:1080C000C0F30745040E4FF400584046FFF7DEFEAC
:1080D00004283CD1DFF82CC14B49CCF808104B499F
:1080E000CCF80810DCF8101041F01001CCF810109A
:1080F000FF2F07D04648083007804046FFF7C6FEEE
:1081000004281BD1FF2E07D041480A300680404684
:10811000FFF7BCFE042811D1FF2D07D03C480C30DE
:1081200005804046FFF7B2FE042807D1FF2C07D098
:1081300037480E3004804046FFF7A8FE052806D0D9
:10814000DCF8101041F6EF721140CCF81010BDE8C9
:10815000F08170B505464FF430263046FFF796FEA5
:10816000042818D1274C2848A0602848A06020691E
:1081700040F020002061206940F04000206130463E
:10818000FFF784FE41F6DF71042805D0052802D0F0
:1081900022690A40226170BD20690840206120697F
:1081A00040F0100020611A480DB1002100E0A52127
:1081B00001803046FFF76AFE0528ECD0216941F6C0
:1081C000EF721140216170BDF0B50E4C07460E48AC
:1081D00016460D46A0600D48A0604FF4005C604656
:1081E000FFF754FE04281ED1206940F010002061E2
:1081F000354307493D43891C45F0F8000880604637
:1082000008E000000020024023016745AB89EFCD64
:1082100000F8FF1FFFF73AFE052804D0216941F658
:10822000EF7211402161F0BD1C48C06980087047A1
:108230001A48006A7047194900200968890600D564
:1082400001207047154A0029116901D0014300E05F
:1082500081431161704701460020104A012903D073
:10826000D2680A4203D17047D169C907FBD0012007
:1082700070470A49C860704708490420CA68D20795
:1082800001D001207047CA68520701D5022070470B
:10829000C968C906FBD503207047000000200240D2
:1082A000C54910B5884202D1012144150AE0C349ED
:1082B000884202D10121041504E0C14988420AD153
:1082C0000121CC032046FEF792FE2046BDE8104077
:1082D0000021FEF78CBE10BD10B54268B94B0C7979
:1082E0001A400B6842EA0422134343608268B64B8B
:1082F0001A40D1E9024323434C7942EA4402134332
:108300008360C26A097C22F47002491EC9B242EA43
:108310000151C16210BD0021016001714171816094
:10832000C1600121017470470029816802D041F0C9
:10833000010101E021F0010181607047002981689D
:1083400002D041F4807101E021F4807181607047B6
:10835000002A4268C9B201D00A4300E08A43426061
:108360007047816841F00801816070470146002034
:108370008968090700D501207047816841F0040130
:1083800081607047014600208968490700D50120B7
:1083900070470029816802D041F4A00101E021F476
:1083A000A00181607047014600208968490200D51C
:1083B000012070474268491E22F4604242EA41317E
:1083C000416070470029416802D041F4006101E03A
:1083D00021F400614160704770B5072609290AD968
:1083E000C568A1F10A0404EB4404A640B543A340C8
:1083F0001D43C56007E0056901EB4104A640B54394
:10840000A3401D4305611F23072A09D2446B521E56
:1084100002EB820293409C4391400C43446370BD45
:108420000D2A09D2046BD21F02EB820293409C43B7
:1084300091400C43046370BDC46A0D3A02EB8202A2
:1084400093409C4391400C43C46270BD00298168F5
:1084500002D041F4801101E021F480118160704765
:10846000C06C80B2704754484C3000687047002997
:10847000416802D041F4806101E021F480614160F3
:1084800070470029416802D041F4805101E021F495
:10849000805141607047826822F4E0420A43826062
:1084A00070470029816802D041F4004101E021F4C5
:1084B0000041816070470029816802D041F40211B7
:1084C00001E021F4021181607047014600208968B3
:1084D000890200D50120704770B5072609290AD9FD
:1084E000C568A1F10A0404EB4404A640B543A340C7
:1084F0001D43C56007E0056901EB4104A640B54393
:10850000A3401D430561836BC3F30154121B921CEE
:1085100002EB82021F249440A34391400B438363E8
:1085200070BD826B491E22F4401242EA0151816300
:10853000704708B508440090026008BD08B50844BB
:1085400028300090006880B208BD42681F4B1A4076
:108550000A4342607047416282627047426822F07B
:108560001F020A4342607047134908310028086817
:1085700002D040F4000001E020F4000008607047E1
:108580000246002012680A4200D001207047C94309
:108590000160704710B50246002054680B0AC9B24A
:1085A0000C401168194202D0002C00D0012010BDEF
:1085B0006FEA11210160704700240140002801404A
:1085C000003C0140FFFEF0FFFDF7F1FFFFFD3FFF24
:1085D000F74910B588424FF0010101D14C0601E086
:1085E0004FF080642046FEF70BFD2046BDE81040AA
:1085F0000021FEF705BD10B50368002223F0020339
:108600000360036843F0010303604FF6FF7300E06B
:10861000521C4468E40701D19A42F9D14268D2075A
:108620003ED08A79012A02683CD022F080020260A2
:10863000CA79012A026838D022F0400202600A7A20
:10864000012A026834D022F0200202604A7A012A0C
:10865000026830D022F0100202608A7A012A026891
:108660002CD022F008020260CA7A012A026828D0BF
:1086700022F0040202608A78CC78920742EA04620F
:108680000C7942EA04424C79098842EA0452491EB4
:108690000A43C261016821F001010160002114E078
:1086A000002010BD42F08002C1E742F04002C5E761
:1086B00042F02002C9E742F01002CDE742F0080282
:1086C000D1E742F00402D5E7491C4268D20701D045
:1086D0009942F9D14068C007E2D1012010BDF0B540
:1086E000827AB44C01219140226842F0010222605A
:1086F000B04D1C352A688A432A60AE4AAD4E037BD2
:108700000C324036371DA3B913688B43136043887E
:10871000B0F806C043EA0C4390F80AC046F83C3073
:108720000388B0F804C043EA0C4390F80AC047F845
:108730003C30037B012B0ED113680B43136002689E
:10874000837A4FEA324246F833204268837A4FEA0E
:10875000324247F83320974AC37A121D002B136820
:1087600006D00B431360934A0389143213B104E01B
:108770008B43F7E713688B4313600389012B02D106
:1087800013680B431360407B012802D1286808431B
:108790002860206820F001002060F0BD0021817178
:1087A000C171017241728172C1728170C170032105
:1087B0000171022141710121018070477D490A68E0
:1087C00042F001020A600A6843F60E739A430A6097
:1087D0000A6842EA00200860086820F0010008608A
:1087E0007047002A426901D00A4300E08A4342618F
:1087F000704730B50246002093685B0108D490684A
:10880000000101D5012003E09068C00031D50220AD
:1088100002EB0012D2F8803103F00103C2F880317C
:108820000B7A43B3D2F880414D681C434B7A43EA3C
:10883000C5031C43C2F880418B7A02F5C07203F075
:108840000F038B72536823F00F03536053688C7AC5
:1088500023435360CB7ACC6843EA04239360CB7BF9
:10886000096943EA0121D160116841F001011160F9
:1088700030BD042030BDD2F880314C7A23430C88BF
:1088800043EA4453C2F88031D6E7002221B10129DE
:108890000FD002291BD121E0816801F0010142EAD9
:1088A00081028168806801F002011143C0F3806297
:1088B0000CE0816801F4807142EA9111826880685D
:1088C00002F4007241EA1221C0F3C0620A439AB175
:1088D000052A01D0072A11D000207047816801F4D1
:1088E000803142EA91318268806802F4003241EAC4
:1088F0001241C0F30072E9E702207047012070477F
:1089000041B101290AD0022903D1816841F4000153
:1089100081607047816841F08001F9E7816841F426
:108920000041F5E7202209B102617047C26070473B
:108930000246002029B1012902D1106900F003008C
:108940007047D068FAE710B400EB0113D3F8B041D8
:1089500014F004041472D3F8B04126D0E408546033
:1089600003F5D8731C6804F0020454725C6804F0C8
:108970000F0494725C68240AD4749C68D4729C6856
:10898000240A14739C68240C54739C68240E9473FA
:10899000DC68D473DC68240A1474DC68240C547416
:1089A000DB681B0E937410BCBCE7640D1460D7E742
:1089B00000640040006600400029016802D041F4D4
:1089C000803101E021F480310160704702680021AC
:1089D00022F0010242F002020260406800F003004F
:1089E000022800D101210846704702684FF6FF7146
:1089F000002322F00202026001E0A1F101014268BD
:108A0000920701D50029F8D14068800700D40123DE
:108A1000184670470246002092690A4200D00120A1
:108A2000704782698A438261704730B402464FF4CE
:108A3000807300201C0240292FD012DC072925D08A
:108A400008DC042925D005291ED0062932D19068DA
:108A500019462AE008291ED020292BD110690821A7
:108A600023E0B1F5806F1ED007DC994218D0B1F534
:108A7000007F1FD19069022117E0A14218D0B1F503
:108A8000003F17D1506809E090680AE090682146DD
:108A90000BE0D068E3E7D06800E01069102104E043
:108AA0009069012101E09069042130BC00F048B8D0
:108AB0005068D4E730BC704730B54FF4807425025D
:108AC0000822102340292ED010DC072925D007DCEE
:108AD000042924D005291DD0062900D1846030BD89
